:100000000C9451000C9454070C9454070C9454070E
:100010000C9454070C9454070C9454070C945407F4
:100020000C9454070C9454070C9454070C945407E4
:100030000C9454070C9454070C9454070C945407D4
:100040000C9454070C9454070C9454070C945407C4
:100050000C9454070C9454070C9454070C945407B4
:100060000C9454070C9454070C9454070C945407A4
:100070000C9454070C9454070C9454070C94540794
:100080000C9454070C9454070C9454070C94540784
:10009000600060028060026027000EB66027602961
:1000A0008000809101108F7C8060806898ED94BF03
:1000B0008093011011241FBECFEFCDBFDFE7DEBF5D
:1000C000E0E9F0E040E017C0B591A59135912591A8
:1000D000059107FD0CC095918591EF01F92FE82F4F
:1000E00005900D92A217B307D9F7FE0104C01D9227
:1000F000A217B307E1F7E13AF40731F70E9434079A
:080100000C942907F894FFCFCD
:0C01080048656C6C6F20576F726C6400CF
:10011400AAE9B0E0E0E9F0E00C94AE066C017A01E3
:10012400C756DF4F68837983C959D040A12CB12CBD
:1001340066246A94762C90E8492E512C25E2222ECE
:10014400C756DF4F68817981C959D040FB0180814E
:10015400882309F471C3CF57DF4F18821982C1581D
:10016400D040CD57DF4F68827982C358D040CB57F7
:10017400DF4F18821982C558D04081E090E08C0F7F
:100184009D1FC957DF4F88839983C758D040C757ED
:10019400DF4F48825982C958D040FB0100E010E08B
:1001A4008191811116C001151105C1F0A801C60184
:1001B4000E949106C756DF4F88819981C959D04062
:1001C400800F911FC756DF4F88839983C959D04048
:1001D40005C0853241F30F5F1F4FE2CFC756DF4F93
:1001E400E881F981C959D0408081853209F012C370
:1001F4004F019FEF891A990AC756DF4F8882998267
:10020400C959D040C756DF4F88819981C959D04018
:10021400DC012C912B3241F4CF57DF4F28813981F7
:10022400C158D04024600BC02C32BCF02D3249F5AB
:10023400CF57DF4F28813981C158D0402160CF5733
:10024400DF4F28833983C158D0400196C756DF4F0A
:1002540088839983C959D040D5CF203241F4CF57F0
:10026400DF4F28813981C158D0402860E8CF23323C
:1002740091F4CF57DF4F28813981C158D040206194
:10028400DECF203341F4CF57DF4F28813981C15865
:10029400D0402260D4CF2A3289F50196C756DF4F69
:1002A40088839983C959D040D701ED91FC91119766
:1002B400CF0102968D939C9380819181CB57DF4F20
:1002C40088839983C558D04097FF35C0CF57DF4FF7
:1002D40028813981C158D040B1E02B27CF57DF4F57
:1002E40028833983C158D040919581959109CB5782
:1002F400DF4F88839983C558D0401DC00E94E40510
:10030400CB57DF4F88839983C558D040C756DF4FFA
:10031400E881F981C959D0408081082E000C990BDD
:10032400C0970A9740F43196C756DF4FE883F983A4
:10033400C959D040EBCFCF57DF4F88819981C1583D
:10034400D04080FF07C08D7FCF57DF4F88839983CC
:10035400C158D040C756DF4FE881F981C959D04010
:1003640080818E3209F046C0CD57DF4F1882198242
:10037400C358D040CF010196C756DF4F8883998375
:10038400C959D04021812A32C1F43296C756DF4F71
:10039400E883F983C959D040D701ED91FC911197B5
:1003A400CF0102968D939C9380819181CD57DF4F2D
:1003B40088839983C358D0401DC00E94E405CD575B
:1003C400DF4F88839983C358D040C756DF4FE881F5
:1003D400F981C959D0408081082E000C990BC0972F
:1003E4000A9740F43196C756DF4FE883F983C95919
:1003F400D040EBCFCE0187569F4F0E945106382E36
:10040400C756DF4FE881F981C959D0408081082E51
:10041400000C990B0E9446078936910509F456C0D1
:10042400B4F48336910509F46BC144F48532910523
:1004340009F4A2C18136910529F1B4C1843691052C
:1004440009F444C0883691050CF436C1ABC1803739
:10045400910509F4C4C04CF48E36910509F420C109
:100464008F36910509F47AC09DC18537910509F449
:1004740051C08837910509F495C08337910509F077
:1004840091C15DC1632D70E0A701CE0185579F4FD7
:100494000E947106892B09F4B0C1C756DF4FE88169
:1004A400F981C959D040CF010196C756DF4F8883DF
:1004B4009983C959D0402081AE0145575F4FBE0191
:1004C4006F577F4FC6010E94510794C1632D70E09E
:1004D400970141E050E0CE0185579F4F0E942404CC
:1004E400892B09F48AC1C756DF4F88819981C9597C
:1004F400D0400196C756DF4F88839983C959D040AD
:10050400AE0145575F4FBE016F577F4FC6010E9432
:100514004E0770C1632D70E0970140E050E0CE01BA
:1005240085579F4F0E942404892B09F466C1C7563E
:10053400DF4F88819981C959D0400196C756DF4F52
:1005440088839983C959D040AE0145575F4FBE0196
:100554006F577F4FC6010E944E074CC1632D70E058
:10056400970140E050E0CE0185579F4F0E9424043C
:10057400892B09F442C1C756DF4F88819981C95933
:10058400D0400196C756DF4F88839983C959D0401C
:10059400AE0145575F4FBE016F577F4FC6010E94A2
:1005A4004E0728C1632D70E0970140E050E0CE0172
:1005B40085579F4F0E942404892B09F41EC1C756F6
:1005C400DF4FE881F981C959D040CF010196C75660
:1005D400DF4F88839983C959D040208157C0970140
:1005E40040E050E060EF70E0CE0185579F4F0E94DD
:1005F4002404892B09F401C1C756DF4F88819981EE
:10060400C959D0400196C756DF4F88839983C95989
:10061400D04086E0EFE1F0E6DE01AD56BF4F019039
:100624000D928A95E1F7C557DF4F2881CB58D0400A
:10063400C457DF4F3881CC58D040C357DF4F48816F
:10064400CD58D040C257DF4F5881CE58D040C15703
:10065400DF4F6881CF58D040C057DF4F7881C059F1
:10066400D040CF56DF4F8881C159D040CE56DF4F9E
:100674009881C259D040A0E00E941D0731F420E0C7
:1006840030E0AE014D565F4FAFC028E7AE0145578D
:100694005F4FBE016F577F4FC6010E945107AAC02A
:1006A400632D70E09701A501400F511FCE018557BE
:1006B4009F4F0E94DD04A1C0632D70E0A701CE010D
:1006C40085579F4F0E947106892B09F496C0C7561F
:1006D400DF4FE881F981C959D040CF010196C7564F
:1006E400DF4F88839983C959D0402081AE01455793
:1006F4005F4FBE016F577F4FC6010E9451077AC0FA
:10070400B0E83B127AC0C756DF4F88819981C95936
:10071400D0400196C756DF4F88839983C959D0408A
:10072400D701ED91FC911197CF0102968D939C9383
:100734008081C557DF4F8883CB58D04050C0B0E884
:100744003B125BC0C756DF4F88819981C959D0409D
:100754000196C756DF4F88839983C959D040D70182
:10076400ED91FC911197CF0102968D939C9340815A
:10077400518120E030E038C0B0E83B123EC0C7569B
:10078400DF4F88819981C959D0400196C756DF4F00
:1007940088839983C959D040C557DF4F2882CB58E5
:1007A400D0401DC0C557DF4F2882CB58D040C75614
:1007B400DF4F88829982C959D040CF57DF4F1882C2
:1007C4001982C158D040CB57DF4F18821982C558BF
:1007D400D040CD57DF4F68827982C358D04021E0A2
:1007E40030E0AE0145575F4FBE016F577F4FC601E2
:1007F4000E941D06800F911F0EC0C756DF4F8881CF
:100804009981C959D0400196C756DF4F888399838F
:10081400C959D040C8018501080F191F0A151B05C5
:100824004CF48FE490E080930060909301608FEF2C
:100834009FEF03C0580184CCC501C656DF4FE2E1E7
:040844000C94F70613
:100848000F931F93CF93DF93FC01D901683871058B
:1008580031F194F461387105B1F12CF46038710507
:1008680009F478C09FC06238710509F459C064382A
:10087800710509F46FC096C0603A710509F448C063
:100888002CF46039710509F44BC08CC0603C7105CB
:1008980009F476C0603F710509F472C083C0CD9138
:1008A800DC911197CE0102968D939C93452B39F0DC
:1008B8009881892F880F880B908381835BC08881FA
:1008C8008083118268C0CD91DC911197CE01049686
:1008D8008D939C93452B99F088819981AA81BB813E
:1008E800AC01BD01770F440B542FBA01808391836B
:1008F800A283B383448345834683478328C0088102
:1009080019812A813B81008311832283338345C067
:10091800CD91DC911197CE0102968D939C9323C0C3
:10092800CD91DC911197CE0108968D939C93788197
:1009380069815A814B813C812D819E818F81708391
:10094800618352834383348325839683878381E03D
:1009580090E02AC0CD91DC911197CE0102968D933B
:100968009C93452BA1F099812881892F880F880BAA
:100978002083918382838383848385838683E6CFE0
:10098800CD91DC911197CE0102968D939C930881AD
:1009980019810083118312821382148215821682B0
:1009A8001782D5CF80E090E0DF91CF911F910F9112
:0209B8000895A0
:1009BA00CF93DF93DC01F90164387105D9F164F44E
:1009CA006138710521F16238710509F440C0603857
:1009DA00710509F054C02EC060397105C1F184F463
:1009EA006838710509F04BC0C081D181CE010296E9
:1009FA0080839183E881F981ED93FC9340833CC025
:100A0A00603A7105B9F0603C7105A1F038C0C08147
:100A1A00D181CE01029680839183E881F981ED9399
:100A2A00FC93052E000C660B770B4083518362837F
:100A3A00738322C0C081D181CE01029680839183C3
:100A4A00E881F981ED93FC934083518315C0C081FD
:100A5A00D181CE01029680839183E881F981ED9359
:100A6A00FC9340835183852F880F880B828383836D
:100A7A00848385838683878381E090E002C080E057
:080A8A0090E0DF91CF91089587
:100A9200A0E1B0E0EFE4F5E00C94B0065C013B01AC
:100AA2006A017901280181E04822552400FD14C021
:100AB200421753078CF487010C191D094801A8013C
:100AC2000131110510F040E150E060E270E0CE012A
:100AD20001960E943D070AC0A601B301C5010E940A
:100AE2009106CE14DF043CF3C60120C0003111058B
:100AF20058F040E150E0BE016F5F7F4FC5010E9498
:100B0200910600511109F2CFA4014F705527BE0181
:100B12006F5F7F4FC5010E9491064114510429F471
:100B2200A601B301C5010E949106C7016096E0E1EA
:040B32000C94F90620
:100B36000F931F93CF93DF93DB012D913C91119778
:100B460030FF25C016964D915C91179714962D91FE
:100B56003C9115974217530778F41296ED91FC9144
:100B66001397808312962D913C9113972F5F3F4FD9
:100B760012962D933C93139716962D913C911797A9
:100B86002F5F3F4F16962D933C93179715C01C96D3
:100B9600ED91FC911D97309719F48FEF9FEF0CC0E4
:100BA6008B01EC010995892BC1F7F80186819781A4
:100BB600019686839783CE01DF91CF911F910F9186
:020BC600089590
:100BC800AC01FA0190814F5F5F4F9032D1F3292F2A
:100BD800092E000C330B295031092530310588F3D3
:100BE8009B3209F540E050E0319602C040E050E009
:100BF80080E090E06AE02191022E000C330B205334
:100C080031092A30310548F4689FD001699FB00D39
:100C18001124CD01821B930BEECF452B49F49195FE
:100C28008195910908959D3209F741E050E0DCCFA4
:020C380008951D
:100C3A00A7E0B0E0E3E2F6E00C94B4065C017A01C6
:100C4A00C90127E0E8E1F0E6DE01119601900D9274
:100C5A002A95E1F7FB01C280D380848095800081C8
:100C6A001181452B21F49E012F5F3F4F7901009797
:100C7A0019F4C7010E940F07D7FC04C0C816D90689
:100C8A0008F4C6019401AC01B701C5010E944905E7
:080C9A002796ECE00C94FD0626
:100CA200CF93DF93EC0190E0E92FF0E0EE0FFF1F0E
:100CB200EE5FFF498081811102C081810EC0A8814F
:100CC200B9812C91821305C091811196A883B983B1
:100CD20001C09F5F9B3040F3892FDF91CF91089530
:100CE200FA0160387105CCF0623871051CF0633886
:100CF200710599F4A081B1819D012C5F3F4F208342
:100D020031834D915D916D917C91FC0140835183C2
:100D12006283738381E090E0089580E090E008951B
:100D2200A0E0B0E0E7E9F6E00C94B8066C01EB0154
:100D32008A017B01E40EF51ECE15DF0541F0899193
:100D4200B601082E000C990B0E949B05F5CFC80135
:0A0D5200CDB7DEB7E8E00C9401070E
:100D5C002F923F924F925F926F927F928F929F92BF
:100D6C00AF92BF92CF92DF92EF92FF920F931F93AD
:100D7C00CF93DF93CDB7DEB7CA1BDB0BCDBFDEBF86
:020D8C000994C8
:100D8E00A0E0B0E0EDECF6E00C94BE06AE014B5FD9
:100D9E005F4FFA0161917191AF01E0912560F09181
:100DAE002660808191810E94DF06E2E00C940707A5
:100DBE00A2E0B0E0E5EEF6E00C94BC068C014983AF
:100DCE005A83AE014F5F5F4F0E948A00F801208167
:100DDE0024FF02C08FEF9FEF2296E4E00C940507EC
:100DEE002A88398848885F846E847D848C849B84AD
:100DFE00AA84B984C884DF80EE80FD800C811B81BB
:100E0E00AA81B981CE0FD11DCDBFDEBFED010895F0
:100E1E00FC01AF014F5F5F4F2081222311F0FA01D9
:0C0E2E00F8CF9F01281B390BC901089563
:100E3A000024A7FD00942A173005400550056005D7
:080E4A00700580059005089574
:100E5200EC010E9459070E945807CE010E945A07CE
:060E6200CE010E945607BC
:100E680088E091E89F938F930E94C7060F900F9098
:020E7800F7CFB2
:100E7A00FC01480F591FE417F50711F06193FBCFE6
:020E8A000895C9
:100E8C009C01215431092A31310508F480620895FE
:060E9C0080E090E00895E3
:060EA20080E090E00895DD
:040EA8000C940000A6
:040EAC000E9482001E
:020EB0000895A3
:020EB2000895A1
:020EB40008959F
:100EB60068076C094C836A9074A07AC000806888C1
:060EC60000846C82008133
:070ECC00286E756C6C290013
:060ED300286E696C290085
:020ED900276090
:00000001FF
